{
	"contracts/003_Integers.sol": {
		"ExampleIntegers": {
			"abi": [
				{
					"inputs": [],
					"name": "decrement_signed",
					"outputs": [],
					"stateMutability": "nonpayable",
					"type": "function"
				},
				{
					"inputs": [],
					"name": "decrement_unsigned",
					"outputs": [],
					"stateMutability": "nonpayable",
					"type": "function"
				},
				{
					"inputs": [],
					"name": "increment_signed",
					"outputs": [],
					"stateMutability": "nonpayable",
					"type": "function"
				},
				{
					"inputs": [],
					"name": "increment_unsigned",
					"outputs": [],
					"stateMutability": "nonpayable",
					"type": "function"
				},
				{
					"inputs": [],
					"name": "myInt1",
					"outputs": [
						{
							"internalType": "int256",
							"name": "",
							"type": "int256"
						}
					],
					"stateMutability": "view",
					"type": "function"
				},
				{
					"inputs": [],
					"name": "myUint1",
					"outputs": [
						{
							"internalType": "uint256",
							"name": "",
							"type": "uint256"
						}
					],
					"stateMutability": "view",
					"type": "function"
				},
				{
					"inputs": [],
					"name": "myUint2",
					"outputs": [
						{
							"internalType": "uint256",
							"name": "",
							"type": "uint256"
						}
					],
					"stateMutability": "view",
					"type": "function"
				}
			],
			"devdoc": {
				"kind": "dev",
				"methods": {},
				"version": 1
			},
			"evm": {
				"assembly": "    /* \"contracts/003_Integers.sol\":61:460  contract ExampleIntegers{... */\n  mstore(0x40, 0x80)\n  callvalue\n  dup1\n  iszero\n  tag_1\n  jumpi\n  0x00\n  dup1\n  revert\ntag_1:\n  pop\n  dataSize(sub_0)\n  dup1\n  dataOffset(sub_0)\n  0x00\n  codecopy\n  0x00\n  return\nstop\n\nsub_0: assembly {\n        /* \"contracts/003_Integers.sol\":61:460  contract ExampleIntegers{... */\n      mstore(0x40, 0x80)\n      callvalue\n      dup1\n      iszero\n      tag_1\n      jumpi\n      0x00\n      dup1\n      revert\n    tag_1:\n      pop\n      jumpi(tag_2, lt(calldatasize, 0x04))\n      shr(0xe0, calldataload(0x00))\n      dup1\n      0x41d35ac2\n      gt\n      tag_10\n      jumpi\n      dup1\n      0x41d35ac2\n      eq\n      tag_6\n      jumpi\n      dup1\n      0x941ed48b\n      eq\n      tag_7\n      jumpi\n      dup1\n      0xaa9cc775\n      eq\n      tag_8\n      jumpi\n      dup1\n      0xe71e1d93\n      eq\n      tag_9\n      jumpi\n      jump(tag_2)\n    tag_10:\n      dup1\n      0xafb61b\n      eq\n      tag_3\n      jumpi\n      dup1\n      0x2c84a043\n      eq\n      tag_4\n      jumpi\n      dup1\n      0x32116b39\n      eq\n      tag_5\n      jumpi\n    tag_2:\n      0x00\n      dup1\n      revert\n        /* \"contracts/003_Integers.sol\":251:315  function decrement_unsigned() public{... */\n    tag_3:\n      tag_11\n      tag_12\n      jump\t// in\n    tag_11:\n      stop\n        /* \"contracts/003_Integers.sol\":153:170  int public myInt1 */\n    tag_4:\n      tag_13\n      tag_14\n      jump\t// in\n    tag_13:\n      mload(0x40)\n      tag_15\n      swap2\n      swap1\n      tag_16\n      jump\t// in\n    tag_15:\n      mload(0x40)\n      dup1\n      swap2\n      sub\n      swap1\n      return\n        /* \"contracts/003_Integers.sol\":392:453  function decrement_signed() public{... */\n    tag_5:\n      tag_17\n      tag_18\n      jump\t// in\n    tag_17:\n      stop\n        /* \"contracts/003_Integers.sol\":94:113  uint public myUint1 */\n    tag_6:\n      tag_19\n      tag_20\n      jump\t// in\n    tag_19:\n      mload(0x40)\n      tag_21\n      swap2\n      swap1\n      tag_22\n      jump\t// in\n    tag_21:\n      mload(0x40)\n      dup1\n      swap2\n      sub\n      swap1\n      return\n        /* \"contracts/003_Integers.sol\":179:243  function increment_unsigned() public{... */\n    tag_7:\n      tag_23\n      tag_24\n      jump\t// in\n    tag_23:\n      stop\n        /* \"contracts/003_Integers.sol\":122:144  uint256 public myUint2 */\n    tag_8:\n      tag_25\n      tag_26\n      jump\t// in\n    tag_25:\n      mload(0x40)\n      tag_27\n      swap2\n      swap1\n      tag_22\n      jump\t// in\n    tag_27:\n      mload(0x40)\n      dup1\n      swap2\n      sub\n      swap1\n      return\n        /* \"contracts/003_Integers.sol\":323:384  function increment_signed() public{... */\n    tag_9:\n      tag_28\n      tag_29\n      jump\t// in\n    tag_28:\n      stop\n        /* \"contracts/003_Integers.sol\":251:315  function decrement_unsigned() public{... */\n    tag_12:\n        /* \"contracts/003_Integers.sol\":298:305  myUint1 */\n      0x00\n      dup1\n        /* \"contracts/003_Integers.sol\":298:307  myUint1-- */\n      dup2\n      sload\n      dup1\n      swap3\n      swap2\n      swap1\n      tag_31\n      swap1\n      tag_32\n      jump\t// in\n    tag_31:\n      swap2\n      swap1\n      pop\n      sstore\n      pop\n        /* \"contracts/003_Integers.sol\":251:315  function decrement_unsigned() public{... */\n      jump\t// out\n        /* \"contracts/003_Integers.sol\":153:170  int public myInt1 */\n    tag_14:\n      sload(0x02)\n      dup2\n      jump\t// out\n        /* \"contracts/003_Integers.sol\":392:453  function decrement_signed() public{... */\n    tag_18:\n        /* \"contracts/003_Integers.sol\":437:443  myInt1 */\n      0x02\n      0x00\n        /* \"contracts/003_Integers.sol\":437:445  myInt1-- */\n      dup2\n      sload\n      dup1\n      swap3\n      swap2\n      swap1\n      tag_34\n      swap1\n      tag_35\n      jump\t// in\n    tag_34:\n      swap2\n      swap1\n      pop\n      sstore\n      pop\n        /* \"contracts/003_Integers.sol\":392:453  function decrement_signed() public{... */\n      jump\t// out\n        /* \"contracts/003_Integers.sol\":94:113  uint public myUint1 */\n    tag_20:\n      sload(0x00)\n      dup2\n      jump\t// out\n        /* \"contracts/003_Integers.sol\":179:243  function increment_unsigned() public{... */\n    tag_24:\n        /* \"contracts/003_Integers.sol\":226:233  myUint1 */\n      0x00\n      dup1\n        /* \"contracts/003_Integers.sol\":226:235  myUint1++ */\n      dup2\n      sload\n      dup1\n      swap3\n      swap2\n      swap1\n      tag_37\n      swap1\n      tag_38\n      jump\t// in\n    tag_37:\n      swap2\n      swap1\n      pop\n      sstore\n      pop\n        /* \"contracts/003_Integers.sol\":179:243  function increment_unsigned() public{... */\n      jump\t// out\n        /* \"contracts/003_Integers.sol\":122:144  uint256 public myUint2 */\n    tag_26:\n      sload(0x01)\n      dup2\n      jump\t// out\n        /* \"contracts/003_Integers.sol\":323:384  function increment_signed() public{... */\n    tag_29:\n        /* \"contracts/003_Integers.sol\":368:374  myInt1 */\n      0x02\n      0x00\n        /* \"contracts/003_Integers.sol\":368:376  myInt1++ */\n      dup2\n      sload\n      dup1\n      swap3\n      swap2\n      swap1\n      tag_40\n      swap1\n      tag_41\n      jump\t// in\n    tag_40:\n      swap2\n      swap1\n      pop\n      sstore\n      pop\n        /* \"contracts/003_Integers.sol\":323:384  function increment_signed() public{... */\n      jump\t// out\n        /* \"#utility.yul\":7:83   */\n    tag_42:\n        /* \"#utility.yul\":43:50   */\n      0x00\n        /* \"#utility.yul\":72:77   */\n      dup2\n        /* \"#utility.yul\":61:77   */\n      swap1\n      pop\n        /* \"#utility.yul\":7:83   */\n      swap2\n      swap1\n      pop\n      jump\t// out\n        /* \"#utility.yul\":89:204   */\n    tag_43:\n        /* \"#utility.yul\":174:197   */\n      tag_50\n        /* \"#utility.yul\":191:196   */\n      dup2\n        /* \"#utility.yul\":174:197   */\n      tag_42\n      jump\t// in\n    tag_50:\n        /* \"#utility.yul\":169:172   */\n      dup3\n        /* \"#utility.yul\":162:198   */\n      mstore\n        /* \"#utility.yul\":89:204   */\n      pop\n      pop\n      jump\t// out\n        /* \"#utility.yul\":210:428   */\n    tag_16:\n        /* \"#utility.yul\":301:305   */\n      0x00\n        /* \"#utility.yul\":339:341   */\n      0x20\n        /* \"#utility.yul\":328:337   */\n      dup3\n        /* \"#utility.yul\":324:342   */\n      add\n        /* \"#utility.yul\":316:342   */\n      swap1\n      pop\n        /* \"#utility.yul\":352:421   */\n      tag_52\n        /* \"#utility.yul\":418:419   */\n      0x00\n        /* \"#utility.yul\":407:416   */\n      dup4\n        /* \"#utility.yul\":403:420   */\n      add\n        /* \"#utility.yul\":394:400   */\n      dup5\n        /* \"#utility.yul\":352:421   */\n      tag_43\n      jump\t// in\n    tag_52:\n        /* \"#utility.yul\":210:428   */\n      swap3\n      swap2\n      pop\n      pop\n      jump\t// out\n        /* \"#utility.yul\":434:511   */\n    tag_44:\n        /* \"#utility.yul\":471:478   */\n      0x00\n        /* \"#utility.yul\":500:505   */\n      dup2\n        /* \"#utility.yul\":489:505   */\n      swap1\n      pop\n        /* \"#utility.yul\":434:511   */\n      swap2\n      swap1\n      pop\n      jump\t// out\n        /* \"#utility.yul\":517:635   */\n    tag_45:\n        /* \"#utility.yul\":604:628   */\n      tag_55\n        /* \"#utility.yul\":622:627   */\n      dup2\n        /* \"#utility.yul\":604:628   */\n      tag_44\n      jump\t// in\n    tag_55:\n        /* \"#utility.yul\":599:602   */\n      dup3\n        /* \"#utility.yul\":592:629   */\n      mstore\n        /* \"#utility.yul\":517:635   */\n      pop\n      pop\n      jump\t// out\n        /* \"#utility.yul\":641:863   */\n    tag_22:\n        /* \"#utility.yul\":734:738   */\n      0x00\n        /* \"#utility.yul\":772:774   */\n      0x20\n        /* \"#utility.yul\":761:770   */\n      dup3\n        /* \"#utility.yul\":757:775   */\n      add\n        /* \"#utility.yul\":749:775   */\n      swap1\n      pop\n        /* \"#utility.yul\":785:856   */\n      tag_57\n        /* \"#utility.yul\":853:854   */\n      0x00\n        /* \"#utility.yul\":842:851   */\n      dup4\n        /* \"#utility.yul\":838:855   */\n      add\n        /* \"#utility.yul\":829:835   */\n      dup5\n        /* \"#utility.yul\":785:856   */\n      tag_45\n      jump\t// in\n    tag_57:\n        /* \"#utility.yul\":641:863   */\n      swap3\n      swap2\n      pop\n      pop\n      jump\t// out\n        /* \"#utility.yul\":869:1049   */\n    tag_46:\n        /* \"#utility.yul\":917:994   */\n      0x4e487b7100000000000000000000000000000000000000000000000000000000\n        /* \"#utility.yul\":914:915   */\n      0x00\n        /* \"#utility.yul\":907:995   */\n      mstore\n        /* \"#utility.yul\":1014:1018   */\n      0x11\n        /* \"#utility.yul\":1011:1012   */\n      0x04\n        /* \"#utility.yul\":1004:1019   */\n      mstore\n        /* \"#utility.yul\":1038:1042   */\n      0x24\n        /* \"#utility.yul\":1035:1036   */\n      0x00\n        /* \"#utility.yul\":1028:1043   */\n      revert\n        /* \"#utility.yul\":1055:1226   */\n    tag_32:\n        /* \"#utility.yul\":1094:1097   */\n      0x00\n        /* \"#utility.yul\":1117:1141   */\n      tag_60\n        /* \"#utility.yul\":1135:1140   */\n      dup3\n        /* \"#utility.yul\":1117:1141   */\n      tag_44\n      jump\t// in\n    tag_60:\n        /* \"#utility.yul\":1108:1141   */\n      swap2\n      pop\n        /* \"#utility.yul\":1163:1167   */\n      0x00\n        /* \"#utility.yul\":1156:1161   */\n      dup3\n        /* \"#utility.yul\":1153:1168   */\n      sub\n        /* \"#utility.yul\":1150:1191   */\n      tag_61\n      jumpi\n        /* \"#utility.yul\":1171:1189   */\n      tag_62\n      tag_46\n      jump\t// in\n    tag_62:\n        /* \"#utility.yul\":1150:1191   */\n    tag_61:\n        /* \"#utility.yul\":1218:1219   */\n      0x01\n        /* \"#utility.yul\":1211:1216   */\n      dup3\n        /* \"#utility.yul\":1207:1220   */\n      sub\n        /* \"#utility.yul\":1200:1220   */\n      swap1\n      pop\n        /* \"#utility.yul\":1055:1226   */\n      swap2\n      swap1\n      pop\n      jump\t// out\n        /* \"#utility.yul\":1232:1463   */\n    tag_35:\n        /* \"#utility.yul\":1270:1273   */\n      0x00\n        /* \"#utility.yul\":1293:1316   */\n      tag_64\n        /* \"#utility.yul\":1310:1315   */\n      dup3\n        /* \"#utility.yul\":1293:1316   */\n      tag_42\n      jump\t// in\n    tag_64:\n        /* \"#utility.yul\":1284:1316   */\n      swap2\n      pop\n        /* \"#utility.yul\":1338:1404   */\n      0x8000000000000000000000000000000000000000000000000000000000000000\n        /* \"#utility.yul\":1331:1336   */\n      dup3\n        /* \"#utility.yul\":1328:1405   */\n      sub\n        /* \"#utility.yul\":1325:1428   */\n      tag_65\n      jumpi\n        /* \"#utility.yul\":1408:1426   */\n      tag_66\n      tag_46\n      jump\t// in\n    tag_66:\n        /* \"#utility.yul\":1325:1428   */\n    tag_65:\n        /* \"#utility.yul\":1455:1456   */\n      0x01\n        /* \"#utility.yul\":1448:1453   */\n      dup3\n        /* \"#utility.yul\":1444:1457   */\n      sub\n        /* \"#utility.yul\":1437:1457   */\n      swap1\n      pop\n        /* \"#utility.yul\":1232:1463   */\n      swap2\n      swap1\n      pop\n      jump\t// out\n        /* \"#utility.yul\":1469:1702   */\n    tag_38:\n        /* \"#utility.yul\":1508:1511   */\n      0x00\n        /* \"#utility.yul\":1531:1555   */\n      tag_68\n        /* \"#utility.yul\":1549:1554   */\n      dup3\n        /* \"#utility.yul\":1531:1555   */\n      tag_44\n      jump\t// in\n    tag_68:\n        /* \"#utility.yul\":1522:1555   */\n      swap2\n      pop\n        /* \"#utility.yul\":1577:1643   */\n      0xffffffffffffffffffffffffffffffffffffffffffffffffffffffffffffffff\n        /* \"#utility.yul\":1570:1575   */\n      dup3\n        /* \"#utility.yul\":1567:1644   */\n      sub\n        /* \"#utility.yul\":1564:1667   */\n      tag_69\n      jumpi\n        /* \"#utility.yul\":1647:1665   */\n      tag_70\n      tag_46\n      jump\t// in\n    tag_70:\n        /* \"#utility.yul\":1564:1667   */\n    tag_69:\n        /* \"#utility.yul\":1694:1695   */\n      0x01\n        /* \"#utility.yul\":1687:1692   */\n      dup3\n        /* \"#utility.yul\":1683:1696   */\n      add\n        /* \"#utility.yul\":1676:1696   */\n      swap1\n      pop\n        /* \"#utility.yul\":1469:1702   */\n      swap2\n      swap1\n      pop\n      jump\t// out\n        /* \"#utility.yul\":1708:1939   */\n    tag_41:\n        /* \"#utility.yul\":1746:1749   */\n      0x00\n        /* \"#utility.yul\":1769:1792   */\n      tag_72\n        /* \"#utility.yul\":1786:1791   */\n      dup3\n        /* \"#utility.yul\":1769:1792   */\n      tag_42\n      jump\t// in\n    tag_72:\n        /* \"#utility.yul\":1760:1792   */\n      swap2\n      pop\n        /* \"#utility.yul\":1814:1880   */\n      0x7fffffffffffffffffffffffffffffffffffffffffffffffffffffffffffffff\n        /* \"#utility.yul\":1807:1812   */\n      dup3\n        /* \"#utility.yul\":1804:1881   */\n      sub\n        /* \"#utility.yul\":1801:1904   */\n      tag_73\n      jumpi\n        /* \"#utility.yul\":1884:1902   */\n      tag_74\n      tag_46\n      jump\t// in\n    tag_74:\n        /* \"#utility.yul\":1801:1904   */\n    tag_73:\n        /* \"#utility.yul\":1931:1932   */\n      0x01\n        /* \"#utility.yul\":1924:1929   */\n      dup3\n        /* \"#utility.yul\":1920:1933   */\n      add\n        /* \"#utility.yul\":1913:1933   */\n      swap1\n      pop\n        /* \"#utility.yul\":1708:1939   */\n      swap2\n      swap1\n      pop\n      jump\t// out\n\n    auxdata: 0xa2646970667358221220325759847d63e6bdcb5619f549b1da39bdb5faea0c31f8d98a82d789067a38fb64736f6c634300080e0033\n}\n",
				"bytecode": {
					"linkReferences": {},
					"object": "608060405234801561001057600080fd5b50610349806100206000396000f3fe608060405234801561001057600080fd5b506004361061007c5760003560e01c806341d35ac21161005b57806341d35ac2146100b3578063941ed48b146100d1578063aa9cc775146100db578063e71e1d93146100f95761007c565b8062afb61b146100815780632c84a0431461008b57806332116b39146100a9575b600080fd5b610089610103565b005b61009361011c565b6040516100a09190610194565b60405180910390f35b6100b1610122565b005b6100bb61013c565b6040516100c891906101c8565b60405180910390f35b6100d9610142565b005b6100e361015b565b6040516100f091906101c8565b60405180910390f35b610101610161565b005b60008081548092919061011590610212565b9190505550565b60025481565b600260008154809291906101359061023b565b9190505550565b60005481565b60008081548092919061015490610283565b9190505550565b60015481565b60026000815480929190610174906102cb565b9190505550565b6000819050919050565b61018e8161017b565b82525050565b60006020820190506101a96000830184610185565b92915050565b6000819050919050565b6101c2816101af565b82525050565b60006020820190506101dd60008301846101b9565b92915050565b7f4e487b7100000000000000000000000000000000000000000000000000000000600052601160045260246000fd5b600061021d826101af565b9150600082036102305761022f6101e3565b5b600182039050919050565b60006102468261017b565b91507f80000000000000000000000000000000000000000000000000000000000000008203610278576102776101e3565b5b600182039050919050565b600061028e826101af565b91507fffffffffffffffffffffffffffffffffffffffffffffffffffffffffffffffff82036102c0576102bf6101e3565b5b600182019050919050565b60006102d68261017b565b91507f7fffffffffffffffffffffffffffffffffffffffffffffffffffffffffffffff8203610308576103076101e3565b5b60018201905091905056fea2646970667358221220325759847d63e6bdcb5619f549b1da39bdb5faea0c31f8d98a82d789067a38fb64736f6c634300080e0033",
					"opcodes": "PUSH1 0x80 PUSH1 0x40 MSTORE CALLVALUE DUP1 ISZERO PUSH2 0x10 JUMPI PUSH1 0x0 DUP1 REVERT JUMPDEST POP PUSH2 0x349 DUP1 PUSH2 0x20 PUSH1 0x0 CODECOPY PUSH1 0x0 RETURN INVALID PUSH1 0x80 PUSH1 0x40 MSTORE CALLVALUE DUP1 ISZERO PUSH2 0x10 JUMPI PUSH1 0x0 DUP1 REVERT JUMPDEST POP PUSH1 0x4 CALLDATASIZE LT PUSH2 0x7C JUMPI PUSH1 0x0 CALLDATALOAD PUSH1 0xE0 SHR DUP1 PUSH4 0x41D35AC2 GT PUSH2 0x5B JUMPI DUP1 PUSH4 0x41D35AC2 EQ PUSH2 0xB3 JUMPI DUP1 PUSH4 0x941ED48B EQ PUSH2 0xD1 JUMPI DUP1 PUSH4 0xAA9CC775 EQ PUSH2 0xDB JUMPI DUP1 PUSH4 0xE71E1D93 EQ PUSH2 0xF9 JUMPI PUSH2 0x7C JUMP JUMPDEST DUP1 PUSH3 0xAFB61B EQ PUSH2 0x81 JUMPI DUP1 PUSH4 0x2C84A043 EQ PUSH2 0x8B JUMPI DUP1 PUSH4 0x32116B39 EQ PUSH2 0xA9 JUMPI JUMPDEST PUSH1 0x0 DUP1 REVERT JUMPDEST PUSH2 0x89 PUSH2 0x103 JUMP JUMPDEST STOP JUMPDEST PUSH2 0x93 PUSH2 0x11C JUMP JUMPDEST PUSH1 0x40 MLOAD PUSH2 0xA0 SWAP2 SWAP1 PUSH2 0x194 JUMP JUMPDEST PUSH1 0x40 MLOAD DUP1 SWAP2 SUB SWAP1 RETURN JUMPDEST PUSH2 0xB1 PUSH2 0x122 JUMP JUMPDEST STOP JUMPDEST PUSH2 0xBB PUSH2 0x13C JUMP JUMPDEST PUSH1 0x40 MLOAD PUSH2 0xC8 SWAP2 SWAP1 PUSH2 0x1C8 JUMP JUMPDEST PUSH1 0x40 MLOAD DUP1 SWAP2 SUB SWAP1 RETURN JUMPDEST PUSH2 0xD9 PUSH2 0x142 JUMP JUMPDEST STOP JUMPDEST PUSH2 0xE3 PUSH2 0x15B JUMP JUMPDEST PUSH1 0x40 MLOAD PUSH2 0xF0 SWAP2 SWAP1 PUSH2 0x1C8 JUMP JUMPDEST PUSH1 0x40 MLOAD DUP1 SWAP2 SUB SWAP1 RETURN JUMPDEST PUSH2 0x101 PUSH2 0x161 JUMP JUMPDEST STOP JUMPDEST PUSH1 0x0 DUP1 DUP2 SLOAD DUP1 SWAP3 SWAP2 SWAP1 PUSH2 0x115 SWAP1 PUSH2 0x212 JUMP JUMPDEST SWAP2 SWAP1 POP SSTORE POP JUMP JUMPDEST PUSH1 0x2 SLOAD DUP2 JUMP JUMPDEST PUSH1 0x2 PUSH1 0x0 DUP2 SLOAD DUP1 SWAP3 SWAP2 SWAP1 PUSH2 0x135 SWAP1 PUSH2 0x23B JUMP JUMPDEST SWAP2 SWAP1 POP SSTORE POP JUMP JUMPDEST PUSH1 0x0 SLOAD DUP2 JUMP JUMPDEST PUSH1 0x0 DUP1 DUP2 SLOAD DUP1 SWAP3 SWAP2 SWAP1 PUSH2 0x154 SWAP1 PUSH2 0x283 JUMP JUMPDEST SWAP2 SWAP1 POP SSTORE POP JUMP JUMPDEST PUSH1 0x1 SLOAD DUP2 JUMP JUMPDEST PUSH1 0x2 PUSH1 0x0 DUP2 SLOAD DUP1 SWAP3 SWAP2 SWAP1 PUSH2 0x174 SWAP1 PUSH2 0x2CB JUMP JUMPDEST SWAP2 SWAP1 POP SSTORE POP JUMP JUMPDEST PUSH1 0x0 DUP2 SWAP1 POP SWAP2 SWAP1 POP JUMP JUMPDEST PUSH2 0x18E DUP2 PUSH2 0x17B JUMP JUMPDEST DUP3 MSTORE POP POP JUMP JUMPDEST PUSH1 0x0 PUSH1 0x20 DUP3 ADD SWAP1 POP PUSH2 0x1A9 PUSH1 0x0 DUP4 ADD DUP5 PUSH2 0x185 JUMP JUMPDEST SWAP3 SWAP2 POP POP JUMP JUMPDEST PUSH1 0x0 DUP2 SWAP1 POP SWAP2 SWAP1 POP JUMP JUMPDEST PUSH2 0x1C2 DUP2 PUSH2 0x1AF JUMP JUMPDEST DUP3 MSTORE POP POP JUMP JUMPDEST PUSH1 0x0 PUSH1 0x20 DUP3 ADD SWAP1 POP PUSH2 0x1DD PUSH1 0x0 DUP4 ADD DUP5 PUSH2 0x1B9 JUMP JUMPDEST SWAP3 SWAP2 POP POP JUMP JUMPDEST PUSH32 0x4E487B7100000000000000000000000000000000000000000000000000000000 PUSH1 0x0 MSTORE PUSH1 0x11 PUSH1 0x4 MSTORE PUSH1 0x24 PUSH1 0x0 REVERT JUMPDEST PUSH1 0x0 PUSH2 0x21D DUP3 PUSH2 0x1AF JUMP JUMPDEST SWAP2 POP PUSH1 0x0 DUP3 SUB PUSH2 0x230 JUMPI PUSH2 0x22F PUSH2 0x1E3 JUMP JUMPDEST JUMPDEST PUSH1 0x1 DUP3 SUB SWAP1 POP SWAP2 SWAP1 POP JUMP JUMPDEST PUSH1 0x0 PUSH2 0x246 DUP3 PUSH2 0x17B JUMP JUMPDEST SWAP2 POP PUSH32 0x8000000000000000000000000000000000000000000000000000000000000000 DUP3 SUB PUSH2 0x278 JUMPI PUSH2 0x277 PUSH2 0x1E3 JUMP JUMPDEST JUMPDEST PUSH1 0x1 DUP3 SUB SWAP1 POP SWAP2 SWAP1 POP JUMP JUMPDEST PUSH1 0x0 PUSH2 0x28E DUP3 PUSH2 0x1AF JUMP JUMPDEST SWAP2 POP PUSH32 0xFFFFFFFFFFFFFFFFFFFFFFFFFFFFFFFFFFFFFFFFFFFFFFFFFFFFFFFFFFFFFFFF DUP3 SUB PUSH2 0x2C0 JUMPI PUSH2 0x2BF PUSH2 0x1E3 JUMP JUMPDEST JUMPDEST PUSH1 0x1 DUP3 ADD SWAP1 POP SWAP2 SWAP1 POP JUMP JUMPDEST PUSH1 0x0 PUSH2 0x2D6 DUP3 PUSH2 0x17B JUMP JUMPDEST SWAP2 POP PUSH32 0x7FFFFFFFFFFFFFFFFFFFFFFFFFFFFFFFFFFFFFFFFFFFFFFFFFFFFFFFFFFFFFFF DUP3 SUB PUSH2 0x308 JUMPI PUSH2 0x307 PUSH2 0x1E3 JUMP JUMPDEST JUMPDEST PUSH1 0x1 DUP3 ADD SWAP1 POP SWAP2 SWAP1 POP JUMP INVALID LOG2 PUSH5 0x6970667358 0x22 SLT KECCAK256 ORIGIN JUMPI MSIZE DUP5 PUSH30 0x63E6BDCB5619F549B1DA39BDB5FAEA0C31F8D98A82D789067A38FB64736F PUSH13 0x634300080E0033000000000000 "
				},
				"gasEstimates": {
					"creation": {
						"codeDepositCost": "168200",
						"executionCost": "214",
						"totalCost": "168414"
					},
					"external": {
						"decrement_signed()": "24546",
						"decrement_unsigned()": "24502",
						"increment_signed()": "24567",
						"increment_unsigned()": "24523",
						"myInt1()": "2452",
						"myUint1()": "2429",
						"myUint2()": "2473"
					}
				},
				"methodIdentifiers": {
					"decrement_signed()": "32116b39",
					"decrement_unsigned()": "00afb61b",
					"increment_signed()": "e71e1d93",
					"increment_unsigned()": "941ed48b",
					"myInt1()": "2c84a043",
					"myUint1()": "41d35ac2",
					"myUint2()": "aa9cc775"
				}
			},
			"storageLayout": {
				"storage": [
					{
						"astId": 3,
						"contract": "contracts/003_Integers.sol:ExampleIntegers",
						"label": "myUint1",
						"offset": 0,
						"slot": "0",
						"type": "t_uint256"
					},
					{
						"astId": 5,
						"contract": "contracts/003_Integers.sol:ExampleIntegers",
						"label": "myUint2",
						"offset": 0,
						"slot": "1",
						"type": "t_uint256"
					},
					{
						"astId": 7,
						"contract": "contracts/003_Integers.sol:ExampleIntegers",
						"label": "myInt1",
						"offset": 0,
						"slot": "2",
						"type": "t_int256"
					}
				],
				"types": {
					"t_int256": {
						"encoding": "inplace",
						"label": "int256",
						"numberOfBytes": "32"
					},
					"t_uint256": {
						"encoding": "inplace",
						"label": "uint256",
						"numberOfBytes": "32"
					}
				}
			},
			"userdoc": {
				"kind": "user",
				"methods": {},
				"version": 1
			}
		}
	}
}